:107B70000C94EC3D0C94FE3D0C94FE3D0C94FE3DAB
:107B80000C94FE3D0C94FE3D0C94FE3D0C94FE3D89
:107B90000C94FE3D0C94FE3D0C94FE3D0C94FE3D79
:107BA0000C94FE3D0C94FE3D0C94FE3D0C94FE3D69
:107BB0000C94FE3D0C94FE3D0C94FE3D0C94FE3D59
:107BC0000C94FE3D0C94FE3D0C94FE3D0C94FE3D49
:107BD0000C94FE3D0C94FE3D11241FBECFEFD8E067
:107BE000DEBFCDBF12E0A0E0B1E001C01D92A63023
:107BF000B107E1F70E94A73E0C94F73F0C94B83D03
:107C00001124A5C00895982F8091C00085FFFCCF56
:107C10009093C60008951F93982F82958F708A3095
:107C200018F0282F295A02C0282F205D892F8F7025
:107C30008A3018F0182F195A02C0182F105D822FA1
:107C40000E94033E812F0E94033E1F910895982FAA
:107C500007C08091C00087FFFCCF8091C600915083
:107C60009923B9F70895882309F483E090E0880FF9
:107C700044EF51E00AC04E9A28EE33E0FA01319702
:107C8000F1F721503040D1F79F5F9817A0F3089586
:107C9000CF93DF93C0E0D0E007C0219629F44E9A3D
:107CA0001D9902C00E94613F8091C00087FFF5CFFF
:107CB0008091C600DF91CF9108951F930E94483EA6
:107CC000182F0E94033E113618F0812F875506C0E9
:107CD000103310F480E002C0812F80531F9108956B
:107CE0001F930E945D3E182F0E945D3E1295107FEB
:107CF000810F1F910895809104028F5F8093040289
:107D0000853011F40E94613F08950E94483E803200
:107D100039F484E10E94033E80E10E94033E08950D
:107D20000E947B3E08951F93182F0E94483E803288
:107D300051F484E10E94033E812F0E94033E80E1C2
:107D40000E94033E02C00E947B3E1F910895FF9255
:107D50000F931F93CF93DF931092040284B714BE46
:107D6000809160008861809360001092600080E4E0
:107D70008093C4001092C50088E18093C10086E022
:107D80008093C2005098589A569A2C9A2D9A1C9B10
:107D900002C00E94613F88EA91E60197F1F71C9BBF
:107DA00002C00E94613F83E00E94333EFF240E9494
:107DB000483E803329F40E94853EFF24F394F7CF98
:107DC000FF2021F488E080936000FFCF813341F4ED
:107DD0000E94483E803209F071C00E94EF3FE7CF19
:107DE000803439F40E94483E8638E8F00E94483ECC
:107DF0001AC0813499F40E94483E803811F482E020
:107E00005AC0813811F481E056C0823811F480E103
:107E100052C0883909F04EC083E04DC0823431F43D
:107E200084E10E94273E0E94853EC1CF853411F433
:107E300085E0F7CF8035B9F38235A9F3813531F488
:107E40000E94853E88E080936000FFCF853549F42D
:107E50000E94483E809300010E94483E80930101A9
:107E6000E2CF8635C9F40E94483E803389F40E94EF
:107E7000483E0E94483E182F0E94483E112311F4AC
:107E80008EE119C0113011F485E915C08FE013C0DF
:107E900083E00E94273E0EC0843621F40E94863F74
:107EA000000085CF843721F40E94C53F00007FCFBA
:107EB000863721F480E00E94933E79CF0E947B3E7A
:107EC00076CF0C94000087B780FDFDCF07BFE89503
:107ED00008951127103021F403E0F5DF01E1F3DF0D
:107EE0000990199001E0EFDF1395103428F0112765
:107EF00005E0E9DF01E1E7DF3296129709F0EACF0A
:107F0000103011F01296F3CF11240895C1DEB82F6E
:107F1000BFDEA82FBDDE382FC2E0D1E0BD01772340
:107F200009F0FFCF662321F0B3DE89936A95FACF7B
:107F3000AFDE803209F5E0910001F0910101EE0F12
:107F4000FF1FC2E0D1E0353469F4AA2381F08991A2
:107F5000F999FECFF2BDE1BD80BDFA9AF99AAA95D2
:107F60003196F3CFF999FECFA0FDA395B2DF84E15E
:107F70004ADE80E148DE0895809104028395809373
:107F8000040285300CF09DDF089582DEB82F80DE7C
:107F9000A82FE0910001F0910101EE0FFF1F78DEA4
:107FA000082F76DE8032A9F484E12DDE8A2F8B2B18
:107FB00071F0053411F0859107C0F999FECFE1BD4C
:107FC000F2BDF89A80B531961EDE1197EFCF80E1B1
:107FD0001ADE08951441565220495350100008E00B
:107FE000E4EDFFE785910FDE0A95E1F70895F89437
:027FF000FFCFC1
:0400000300007B700E
:00000001FF
