:100000000C94330F0C944D120C94460F0C94460F25
:100010000C94460F0C94460F0C94460F0C948715C5
:100020000C94460F0C94460F0C94460F0C946113DD
:100030000C94460F0C94460F0C94EC120C94460F43
:100040000C94460F0C94460F0C9498140C94460F85
:100050000C9471140C94460F0C94460F0C94460F9C
:100060000C94460F0C94460F4000005600014000CF
:10007000012A00010A0000040000080201810000BA
:100080005600004A616E1F4665621C4D61721F4139
:1000900070721E4D61791F4A756E1E4A756C1F4144
:1000A00075671F5365701E4F63741F4E6F761E4435
:1000B00065631F53756E646179004D6F6E6461797D
:1000C0000054756573646179005765646E65736487
:1000D000617900546875727364617900467269646D
:1000E000617900536174757264617900B300BA007C
:1000F000C100C900D300DC00E300000303060104D3
:100100000602050003059281E7D6B4A39200514090
:10011000362503625100205465726D696E616C0072
:10012000808386898C8F9295989C9FA2A5A8ABAE60
:10013000B0B3B6B9BCBFC1C4C7C9CCCED1D3D5D872
:10014000DADCDEE0E2E4E6E8EAECEDEFF0F2F3F52B
:10015000F6F7F8F9FAFBFCFCFDFEFEFFFFFFFFFFE0
:10016000FFFFFFFFFFFFFEFEFDFCFCFBFAF9F8F7C7
:10017000F6F5F3F2F0EFEDECEAE8E6E4E2E0DEDCDF
:10018000DAD8D5D3D1CECCC9C7C4C1BFBCB9B6B3F8
:10019000B0AEABA8A5A29F9C9895928F8C898683C0
:1001A000807C797673706D6A6763605D5A575451CD
:1001B0004F4C494643403E3B383633312E2C2A279C
:1001C0002523211F1D1B1917151312100F0D0C0AC3
:1001D00009080706050403030201010000000000EE
:1001E00000000000000001010203030405060708E7
:1001F000090A0C0D0F1012131517191B1D1F2123AF
:1002000025272A2C2E313336383B3E404346494C75
:100210004F5154575A5D6063676A6D707376797C8D
:100220000102040810204080420050004700303195
:1002300032333435363738394142434445460CF879
:100240000C46F846F8F80CF8FF01FE0101FE01FE2D
:10025000FE01FEFE010101FEFE01FE0101FE01FEA6
:10026000FEFF0B694F0B8C4FFF0B697F0B8C4FFF11
:100270000B694F0B8C7FFF6202690270020B694FA2
:100280000B8C4F0BAF4FFF0B697F0B8C4F0BAF4F9E
:10029000FF0B694F0B8C7F0BAF4FFF0B697F0B8CF4
:1002A0007F0BAF4FFF0B694F0B8C4F0BAF7FFF0BDB
:1002B000697F0B8C4F0BAF7FFF7D02870291029B02
:1002C00002A502AF020B694F0B8C4F0BAF4F0BD245
:1002D0004FFF0B697F0B8C4F0BAF4F0BD24FFF0BB8
:1002E000694F0B8C7F0BAF4F0BD24FFF0B697F0B0E
:1002F0008C7F0BAF4F0BD24FFF0B694F0B8C4F0B0B
:10030000AF7F0BD24FFF0B697F0B8C4F0BAF7F0B77
:10031000D24FFF0B694F0B8C7F0BAF7F0BD24FFF80
:100320000B697F0B8C7F0BAF7F0BD24FFF0B694F9D
:100330000B8C4F0BAF4F0BD27FFF0B697F0B8C4F9A
:100340000BAF4F0BD27FFFC502D202DF02EC02F9E6
:10035000020603130320032D033A030C01020304D6
:1003600005060708090A0B0C010203040506070825
:10037000090A0B0000010001010001FF01FF00FF5D
:10038000FF00FF53657269616C20496E204F7665EE
:1003900072666C6F77200A0D004E6F726D616C0093
:1003A00053686F72742053312020204D656E7500A4
:1003B0004C6F6E67202053312020204368616E67A8
:1003C000650053686F727420533220202048656C9A
:1003D00070004C6F6E6720205332202020526562DF
:1003E0006F6F74004368616E67652F4D656E7500B1
:1003F0005331202020202020202020496E63726568
:100400006D656E7400533220202020202020202093
:10041000416476616E636500526566726573683A21
:1004200000557054696D653A00DB0619EBE706A9C3
:10043000EB990355CDA0030AB8B0030AA3C2030A7F
:100440008ED2030A79E4033C5FF0030A4A05040AEA
:100450003518040A1921040A0400008E1900008EC0
:1004600004434D564B00392419254224E9258507BC
:100470008B07820794074E4650554C4200F325EBFC
:1004800027FE2724252C252F2405050302030944D4
:10049000544148494F5253574700FC2C432DAE2D31
:1004A000832BB32C6C2BA12BA72BDB2B342F2041C0
:1004B0005652204F7363696C6C6F73636F70652065
:1004C000436C6F636B200031206469676974207628
:1004D000616C75652028302D00322064696769746D
:1004E00020006872733A20006D696E733A200073C1
:1004F0006563733A2000796561723A20006D6F6E12
:1005000074683A20006461793A200043616E636543
:100510006C2F54696D656F7574004E616D652000B8
:1005200028432932303130204A616E2064652052E0
:100530006965000D0A003420686578206469676980
:100540007420494F43544C3A200044535420666968
:100550007820002048656C703A0D0A413A204170BD
:10056000706C69636174696F6E2053656C65637448
:10057000696F6E2028302E2E35290D0A423A20420E
:1005800075726E2D696E2070726576656E74696F16
:100590006E0D0A433A20416C61726D206F6E2F6FB1
:1005A00066660D0A443A204368616E6765204461BF
:1005B00074650D0A463A20436C6F636B2046616395
:1005C00065204D6F64652028302E2E35290D0A4791
:1005D0003A2047505320496E7075740D0A493A20ED
:1005E000494F43544C0D0A4B3A204368726F6E6F6B
:1005F00020446973706C61790D0A4C3A204C454473
:1006000020626C696E6B696E670D0A4D3A2050501E
:10061000532054726967676572204D6F64650D0AD7
:100620004E3A204E756D6572696320446973706C33
:100630006179204D6F64652028302E2E35290D0AF2
:10064000503A20506C6179204D6F64652028302E1F
:100650002E33290D0A523A205265736574204545A0
:1006600050726F6D20436F6E6669670D0A533A20B2
:10067000446973706C6179205374617475730D0AE9
:10068000543A204368616E67652054696D650D0AB0
:10069000553A204368616E676520445354206D6F5E
:1006A00064650D0A563A20566572626F7365204F75
:1006B00075747075740D0A573A204368616E6765EA
:1006C000204E616D6500436F6D6D616E642848203A
:1006D000666F722068656C70293A004475746368AF
:1006E00074726F6E69780056342E3000010101017A
:1006F00001000101010100000101010000000101F0
:1007000000000000010000000000010000000001E6
:10071000010000000101010000010101010080FE53
:1007200080F2008DFE8CF9009AFC99F700A6F8A5DE
:10073000F400B3F4B1EF00BFEEBAE500CAE6C7E2D9
:1007400000D4DED0DA00DDD5D9D100E5CBE1C80098
:10075000EDBFE4BA00F3B4EEB200F7A7F3A600FBD6
:100760009BF69A00FD8EF88D00FD80F18000FD73F0
:10077000F87400FB66F66700F75AF35B00F34DEE82
:100780004F00ED41E44600E536E13900DD2CD9307B
:1007900000D423D02700CA1BC71F00BF13BA1C00F8
:1007A000B30DB11200A609A50D009A05990A008D96
:1007B000038C08007F037F0F007203730800650538
:1007C000660A0059095A0D004C0D4E12004113469D
:1007D0001C00351B381F002B232F2700222C26300E
:1007E000001A361E390012421B47000C4D114F00F3
:1007F000085A0C5B00046609670002730774000264
:10080000810E8100028E078D00049B099A0008A7C3
:100810000CA6000CB411B20012BF1BBA001ACB1EFA
:10082000C80022D526D1002BDE2FDA0035E638E2CB
:100830000040EE45E5004CF44EEF0059F85AF40044
:1008400065FC66F70072FE73F9FF80FE80FD81FD96
:1008500081FC008DFE8DFD8EFD8EFC009AFC99FBC7
:100860009BFB9AFA00A6F8A6F7A7F7A7F600B3F441
:10087000B2F3B4F3B3F200BFEEBEEDC0EDBFEC00D7
:10088000CAE6C9E6CBE5CAE500D4DED3DDD5DDD4C2
:10089000DC00DDD5DCD4DED4DDD300E5CBE5CAE673
:1008A000CAE6C900EDBFECBFEEBEEDBE00F3B4F288
:1008B000B3F4B3F3B200F7A7F6A7F8A6F7A600FBC8
:1008C0009BFA9AFC9AFB9900FD8EFC8EFE8DFD8DA5
:1008D00000FD80FC80FE81FD8100FD73FC73FE74D1
:1008E000FD7400FB66FA67FC67FB6800F75AF65A6E
:1008F000F85BF75B00F34DF24EF44EF34F00ED4121
:10090000EC42EE42ED4300E536E537E637E63800E7
:10091000DD2CDC2DDE2DDD2E00D423D324D524D4F4
:100920002500CA1BC91BCB1CCA1C00BF13BE14C0A8
:1009300014BF1500B30DB20EB40EB30F00A609A676
:100940000AA70AA70B009A0599069B069A07008D2D
:10095000038D048E048E05007F037F0480048005D0
:10096000007203720473047305006505660666066B
:100970006707005909590A5A0A5A0B004C0D4D0EC7
:100980004D0E4E0F00411341144214421500351B09
:10099000361B361C371C002B232C242C242D250021
:1009A000222C232D232D242E001A361A371B371BF9
:1009B00038001242134213431443000C4D0D4E0DE8
:1009C0004E0E4F00085A095A095B0A5B000466057F
:1009D00067056706680002730373037404740002FA
:1009E0008103810382048200028E038E038D048DB5
:1009F00000049B059A059A06990008A709A709A66D
:100A00000AA6000CB40DB30DB30EB20012BF13BF93
:100A100013BE14BE001ACB1ACA1BCA1BC90022D5AA
:100A200023D423D424D3002BDE2CDD2CDD2DDC00BD
:100A300035E636E636E537E50040EE41ED41ED427C
:100A4000EC004CF44DF34DF34EF20059F859F75ABF
:100A5000F75AF60065FC66FB66FB67FA0072FE72E9
:100A6000FD73FD73FCFF7AEB7AD90080E883EB8994
:100A7000EB8CE88CE580D98CD900B5E4B5D20000C8
:100A8000D2BBD5BEDBBEDEBBDEB8D2ACDEAC000076
:100A9000E286E589EB89EE86EE83EB80EE7DEE7AE9
:100AA000EB77E577E27A00E580EB8000E04CD44C10
:100AB000DD55DD430000B831AC31AC28B528B82590
:100AC000B822B51FAF1FAC220000852182247C24F0
:100AD000792179157C12821285158518821B7C1B61
:100AE00079180047315331532E502B4D254D1F009F
:100AF000224C1F4F1F52225528552B522B4F284C4A
:100B0000224C1F491F46224328432B462B49284C81
:100B100000001D841A811A81148111841187148A9E
:100B20001A8A1D871D7B1A781478117B000021BE5C
:100B300021AC000027BB2ABE30BE33BB33AF30AC84
:100B40002AAC27AF27BB000049E449D2000053E498
:100B500053D2FF0073EF76F27CF27FEF7FEC73E00D
:100B60007FE0008DE981E98AF28AE000AAE2AAD05A
:100B70000000B0DFB3E2B9E2BCDFBCDCB9D9BCD65F
:100B8000BCD3B9D0B3D0B0D300B3D9B9D900D0BC9D
:100B9000D0AA0000E2B3D6B3DFBCDFAA0000DC8934
:100BA000DC7700EE89E289E280EB80EE7DEE7AEB85
:100BB00077E577E27A00D055D0430000E252DF5566
:100BC000D955D652D646D943DF43E246E249DF4CF7
:100BD000D94CD6490000AA2DAA1B0000B02DBC2D6F
:100BE000BC2AB927B621B61B00007B217B0F0083EE
:100BF00018801B801E832189218C1E8C1B891883E1
:100C00001880158012830F890F8C128C158918009B
:100C1000492F491D00005B295826582652264F2986
:100C20004F2C522F582F5B2C5B20581D521D4F20EC
:100C300000001E52215527552A522A4F1E432A438F
:100C400000002F52325538553B523B463843324311
:100C50002F462F5200001187148A1A8A1D871D847F
:100C600011781D780000238A237800001EBB21BE66
:100C700027BE2ABB2AB81EAC2AAC00002FBB32BE4E
:100C800038BE3BBB3BB82FAC3BAC000040DD43E083
:100C900049E04CDD4CDA40CE4CCE000051DD54E052
:100CA0005AE05DDD5DDA5AD75DD45DD15ACE54CEBF
:100CB00051D10054D75AD7FF76DF8ADF0079DF8021
:100CC000F30079F380DF0083DF83F30087F387DFAE
:100CD0000076F38AF300ADD1B5D100B1D1B1E50012
:100CE000ADE5B5E50000D2ABDEAB00D6ABD6BF00BC
:100CF000DAABDABF00D2BFDEBF00DC76EE7600E012
:100D000076E08A00E576E58A00EA76EA8A00DC8AFF
:100D1000EE8A00C942DF4200CE42CE5600D242D215
:100D20005600D642D65600DA42DA5600C956DF5689
:100D30000000A922B92200AD36B122B53600A9368D
:100D4000B9360000751489140079287D14812800B3
:100D500085148528007528892800432259220046D9
:100D6000364A224E36005122513600552255360061
:100D70004336593600001D42394200225626422A87
:100D800056002E422E560032423256003642365619
:100D9000001D5639560011772377001477148B0005
:100DA0001877208B00188B207700118B238B000085
:100DB00024AB32AB0027AB2FBF0027BF2FAB0024E3
:100DC000BF32BF0048D15AD1004BD153E5004BE5AB
:100DD00053D10056D156E50048E55AE5FF007AEBBD
:100DE0007AD90080E883EB89EB8CE88CE580D98C9C
:100DF000D900E286E589EB89EE86EE83EB80EE7D15
:100E0000EE7AEB77E577E27A00E580EB80008521EA
:100E100082247C24792179157C128212851585180B
:100E2000821B7C1B7918001D841A811A8114811180
:100E3000841187148A1A8A1D871D7B1A78147811E9
:100E40007BFF80EC8080FF8BEC8080FF96EA8080C7
:100E5000FFA1E78080FFABE38080FFB6DE8080FFEC
:100E6000BFD88080FFC8D18080FFD0C98080FFD7E5
:100E7000C08080FFDDB68080FFE2AC8080FFE6A20C
:100E80008080FFE9978080FFEB8C8080FFEB808083
:100E900080FFEB758080FFE96A8080FFE65F8080DD
:100EA000FFE2558080FFDD4A8080FFD7418080FFD0
:100EB000D0388080FFC8308080FFBF298080FFB697
:100EC000238080FFAB1E8080FFA11A8080FF9617D1
:100ED0008080FF8B158080FF80158080FF741580D7
:100EE00080FF69178080FF5E1A8080FF541E80801B
:100EF000FF4A238080FF40298080FF37308080FFB9
:100F00002F388080FF28418080FF224B8080FF1D8A
:100F1000558080FF195F8080FF166A8080FF1475FE
:100F20008080FF14808080FF148C8080FF16978063
:100F300080FF19A28080FF1DAC8080FF22B68080D8
:100F4000FF28C08080FF2FC98080FF37D18080FFBD
:100F500040D88080FF49DE8080FF54E38080FF5EC0
:100F6000E78080FF69EA8080FF74EC8080FF8280E8
:100F700080E67E808280FF81808AE67E818180FF9C
:100F8000818095E47E818180FF81809FE27E8181E6
:100F900080FF8180A9DE7E818180FF817FB3D97E41
:100FA00082817FFF817FBBD37E82817FFF817FC46F
:100FB000CC7E82817FFF817FCBC57E82817FFF8156
:100FC0007FD2BC7E82817FFF807FD8B37F82807F8B
:100FD000FF807FDDAA7F82807FFF807FE1A07F820C
:100FE000807FFF807FE3967F82807FFF807FE58B1D
:100FF0007F82807FFF7F7EE58080827F7EFF7F7F94
:10100000E57680827F7FFF7F7FE36B80827F7FFF3B
:101010007F7FE16180827F7FFF7F7FDD5780827FDE
:101020007FFF7E7FD84D81827E7FFF7E7FD245818C
:10103000827E7FFF7E7FCB3C81827E7FFF7E7FC46E
:101040003581827E7FFF7E7FBB2E81827E7FFF7E09
:101050007FB32881827E7FFF7E80A92381817E806D
:10106000FF7E809F1F81817E80FF7E80951D818114
:101070007E80FF7E808A1B81817E80FF7E817F1B38
:1010800082807E81FF7E81751B81807E81FF7E81D3
:101090006A1D81807E81FF7E81601F81807E81FF4D
:1010A0007E81562381807E81FF7E814D2881807ED6
:1010B00081FF7E82442E817F7E82FF7E823B35814E
:1010C0007F7E82FF7E82343C817F7E82FF7E822D06
:1010D00045817F7E82FF7F82274E807F7F82FF7FD8
:1010E000822257807F7F82FF7F821E61807F7F8286
:1010F000FF7F821C6B807F7F82FF7F821A76807FDA
:101100007F82FF80821A817F7E8082FF80821A8B9D
:101110007F7F8082FF80821C967F7F8082FF80821B
:101120001EA07F7F8082FF808222AA7F7F8082FF35
:10113000808227B37F7F8082FF81822DBC7E7F816A
:1011400082FF818234C57E7F8182FF81823BCC7E9B
:101150007F8182FF818244D37E7F8182FF81824CA6
:10116000D97E7F8182FF818156DE7E808181FF81F1
:101170008160E27E808181FF81816AE47E8081815D
:10118000FF818175E67E808181FF828080BC7E80C8
:101190008280FF818086BC7E818180FF81808CBBC4
:1011A0007E818180FF818092BA7E818180FF8180F3
:1011B00098B77E818180FF817F9EB47E82817FFF90
:1011C000817FA3B17E82817FFF817FA8AD7E8281F6
:1011D0007FFF817FACA97E82817FFF817FB0A47E6B
:1011E00082817FFF807FB39E7F82807FFF807FB67A
:1011F000997F82807FFF807FB9937F82807FFF808D
:101200007FBA8D7F82807FFF807FBB877F82807FD8
:10121000FF7F7EBB8080827F7EFF7F7FBB7A808264
:101220007F7FFF7F7FBA7480827F7FFF7F7FB96E71
:1012300080827F7FFF7F7FB66880827F7FFF7E7F97
:10124000B36281827E7FFF7E7FB05D81827E7FFF81
:101250007E7FAC5881827E7FFF7E7FA85481827E14
:101260007FFF7E7FA35081827E7FFF7E7F9E4D81A8
:10127000827E7FFF7E80984A81817E80FF7E809281
:101280004781817E80FF7E808C4681817E80FF7ECB
:1012900080864581817E80FF7E817F4582807E8140
:1012A000FF7E81794581807E81FF7E8173468180CA
:1012B0007E81FF7E816D4781807E81FF7E81674ACE
:1012C00081807E81FF7E81624D81807E81FF7E8272
:1012D0005C50817F7E82FF7E825754817F7E82FFB9
:1012E0007E825358817F7E82FF7E824F5D817F7E2A
:1012F00082FF7F824C63807F7F82FF7F824968808C
:101300007F7F82FF7F82466E807F7F82FF7F824564
:1013100074807F7F82FF7F82447A807F7F82FF801C
:101320008244817F7E8082FF808244877F7F8082AB
:10133000FF8082458D7F7F8082FF808246937F7F02
:101340008082FF808249997F7F8082FF80824C9ECD
:101350007F7F8082FF81824FA47E7F8182FF818296
:1013600053A97E7F8182FF818257AD7E7F8182FF7C
:1013700081825CB17E7F8182FF818261B47E7F81C8
:1013800082FF818167B77E808181FF81816DBA7E16
:10139000808181FF818173BB7E808181FF81817922
:1013A000BC7E808181FF05941994196C056C0594AD
:1013B00006951A951A6D066D0695FF0F6C0F941021
:1013C00094106CFF0594199419800580056C196CB4
:1013D0001A6D066D067F1A7F1A930693FF059419FE
:1013E00094196C056C066D1A6D1A950695000580AA
:1013F00018800018810681FF059405801880001868
:10140000810681069500196C19941A951A6DFF19B9
:1014100094059405801980196D066D056C196C0092
:101420001A6D1A81068106951A95FF0594056C19A7
:101430006C198006800006811A811A6D066D06956A
:10144000FF05941994196C1A6D1A950695FF059469
:101450001994196C056C059406951A951A6D066D0C
:10146000069500068018800018810681FF056C191A
:101470006C199405940580188000188106810695E2
:101480001A951A6D066DFFA613BB13C413DD13F86E
:10149000130F142B1441144E146D14058406840686
:1014A00085058500057C067C067B057B004C844D0C
:1014B000844D854C85004C7C4D7C4D7B4C7BFF10D6
:1014C000383810100010006C6C480000000000005C
:1014D000287C28287C2800203840300870100064C0
:1014E000640810204C4C00205050205448340030E8
:1014F00030200000000000102020202020100020BC
:10150000101010101020000028387C38280000002F
:1015100010107C101000000000000000606040000F
:1015200000007800000000000000000030300000E3
:101530000408102040000038444C54644438001023
:10154000301010101038003844041820407C003847
:1015500044043804443800081828487C0808007CF3
:101560004040780444380018204078444438007CD7
:1015700004081020202000384444384444380038FF
:1015800044443C04083000000060600060600000DB
:1015900000303000303020081020402010080000BB
:1015A000007C00007C000020100804081020003897
:1015B0004404181000100038445C545C4038003873
:1015C0004444447C4444007844447844447800389B
:1015D0004440404044380078444444444478007CCB
:1015E00040407840407C007C40407840404000389B
:1015F00044405C44443C004444447C4444440038FB
:10160000101010101038000404040444443800443E
:10161000485060504844004040404040407C0044B6
:101620006C5444444444004464544C44444400389E
:1016300044444444443800784444784040400038AE
:10164000444444544834007844447848444400387E
:10165000444038044438007C10101010101000442E
:10166000444444444438004444444444281000441E
:1016700044545454542800444428102844440044FA
:10168000444428101010007808102040407800389A
:1016900020202020203800004020100804000038BE
:1016A000080808080838001028440000000000005E
:1016B000000000000000FC303010000000000000BE
:1016C0000038043C443C00404078444444780000E6
:1016D0000038444044380004043C4444443C000086
:1016E000003844784038001820207820202000005E
:1016F000003C44443C04384040704848484800108E
:101700000010101010180008001808080848304091
:101710004048506050480010101010101018000081
:101720000068545444440000007048484848000091
:101730000038444444380000007844444478400071
:10174000003C4444443C0400005824202070000025
:10175000003840380438000020782020281000008D
:10176000004848485828000000444444281000001D
:10177000004444547C280000004848304848000099
:101780000048484838106000007808304078001859
:1017900020206020201800101010001010100030C1
:1017A00008080C080830002850000000000000382D
:1017B0007C7C7C7C7C3800596F7572204E616D6535
:1017C00020686572650042696E61727920436C6FB2
:1017D000636B004469676974616C20436C6F636B71
:1017E00000506C6179204D6F6465004C4544205475
:1017F000696D65005761726E696E6773004F6E2088
:1018000053637265656E204D656E75005468616E38
:101810006B20596F750042692D48657820436C6FC5
:10182000636B00446179206F66207468652057659A
:10183000656B0043616C6962726174696F6E2053FD
:10184000637265656E005465726D696E616C0053FC
:10185000636F72653A20203233333030005665634F
:10186000746F722047726170686963730048656CB9
:10187000702053637265656E004275726E496E200A
:1018800050726576656E74696F6E00416C736F207F
:10189000537570706F7274656400475053204E4DDD
:1018A00045412050617273696E67004461796C69CB
:1018B00067687420536176696E672054696D6500AE
:1018C000416C61726D00333720436F6D62696E61E8
:1018D00074696F6E7300546869732064656D6F205E
:1018E0006D6F64652073686F777320736F6D65200B
:1018F0006F6620746865206361706162696C6974E9
:10190000696573206F66207468650D0A4156522020
:10191000436C6F636B2E205468652064656D6F2087
:101920007072657365727665732074686520737470
:10193000617465206F6620796F757220636C6F63C8
:101940006B0D0A00000000FF00FFFFFFFFFFFF001C
:10195000FF0000005E6A695D695D6F676F675E6AC0
:10196000695D80508050875B875B6F6780508548DA
:10197000875B905A7C02830783078B028B02860960
:1019800086098B118B11830C830C7C117C118109CE
:1019900081097C0284528B578B57935293528E59F4
:1019A0008E59936193618B5C8B5C846184618959EE
:1019B0008959845272C079C579C581C081C07CC7FC
:1019C0007CC781CF81CF79CA79CA72CF72CF77C7EE
:1019D00077C772C016F419F619F61DF41DF41AF73C
:1019E0001AF71DFB1DFB19F819F816FB16FB18F763
:1019F00018F716F4871E8E238E23961E961E9125A9
:101A00009125962D962D8E288E28872D872D8C2515
:101A10008C25871E3E8A438D438D498A498A448F8F
:101A2000448F49954995439043903E953E95418F0B
:101A3000418F3E8AA2A8A9ADA9ADB1A8B1A8ACAF0B
:101A4000ACAFB1B7B1B7A9B2A9B2A2B7A2B7A7AFAD
:101A5000A7AFA2A866DC6DE16DE175DC75DC70E313
:101A600070E375EB75EB6DE66DE666EB66EB6BE3CD
:101A70006BE366DC1A38213D213D29382938243FA3
:101A8000243F29472947214221421A471A471F3F2D
:101A90001F3F1A38A86EAF73AF73B76EB76EB275CB
:101AA000B275B77DB77DAF78AF78A87DA87DAD75ED
:101AB000AD75A86E468647874A824B834E7E4F7F20
:101AC0002DD82ED94875497630D231D333CC34CD88
:101AD00026A627A76069616A41707000436C6F6336
:101AE0006B0043616C005465726D0047656E004287
:101AF0006F6F740044656D6F00505053004E756DEC
:101B0000004C6564004275726E696E004469616CD8
:101B1000004F6E004F6666003132687200323468E2
:101B20007200486578004461746500416C61726DB3
:101B3000004469670042696E00526F6D004D696E26
:101B4000004D6F72736500446562756700506C618B
:101B500079004E6F726D005265760046460046521F
:101B6000004E616D65004564697400446179004F01
:101B7000005075736820533120746F205374617264
:101B80007400475053004F6666002D3132002D31EE
:101B900031002D3130002D3920002D3820002D3717
:101BA00020002D3620002D3520002D3420002D332F
:101BB00020002D3220002D312000302020002B313C
:101BC00020002B3220002B3320002B3420002B351B
:101BD00020002B3620002B3720002B3820002B39FB
:101BE00020002B3130002B3131002B313200445397
:101BF00054004368726F6E6F0052657365740031F4
:101C0000487A0034303936487A00426175640031D0
:101C10003932303020003238383030200033383418
:101C20003030200035373630302000313135323019
:101C30003000323530303030003438303020200041
:101C400039363030202000313434303020005553C4
:101C50004100455500350036003700380039003066
:101C6000003100320033003400181B1D1B391B31BA
:101C70001B351B3D1B181B1D1B221B261B2B1B145E
:101C80001B111B411B471B141B0F1C161C1D1C2466
:101C90001C2B1C321C391C401C471C141B111BFF25
:101CA0001B031CAA1BAE1BB21BB61BBE1BC21BC652
:101CB0001BCA1B007FFCFDFEFF010203040203049C
:101CC00005FF0607080900521B571B5B1B5E1B1113
:101CD0001B141B661B6B1B6F1B4E1C521C141BDC46
:101CE0001AE21AE61AEB1AF41AEF1A33349D36691F
:101CF00006D7339236710697321A36790641335B2E
:101D0000368106D132F5318906B432213691060981
:101D1000333E369906BC338736A1069A337C36A902
:101D20000678337136B1065E336636B906EE323365
:101D300036C10624334936C9066A32FB35CD06382A
:101D40003257340000292A173601802A2B1232021A
:101D5000802B2C1B3203802CB1213200002D2E6DE4
:101D600031EA042E2F1232E2042F301B32DA043013
:101D7000B12132000034756F31EA0435761232E257
:101D80000436771B32DA0437B12132000012131700
:101D90003605801311B13104801195B7310000155B
:101DA00010BD3101801094CD31000014288A31001B
:101DB00000383917360180393A933102803A3B9D19
:101DC0003103803BBCA73100003C28DF31000031EB
:101DD000328631F20432B3073200003300D33100CF
:101DE00000DB0619EBE706A9EBFD1A03C30000337D
:101DF000C30C1B86C30000C2C3821B03AA000033AE
:101E0000AAEE1B86AA0000B6AAD81A0391000033D6
:101E100091F91A86910000B691F21B0378000057E1
:101E2000782B1B86780000CE78011B035F000033FF
:101E30005F051B865F0000DA5F4D1B034600003F15
:101E400046F91B86460000CE460A1C032D000039C9
:101E50002D611B862D0000C22D9C070314244750C2
:101E6000524D432C000065D011241FBECFEFD8E0A7
:101E7000DEBFCDBF17E0A0E0B1E001C01D92AC3DD8
:101E8000B107E1F70E94832A0C94A83A0C94000051
:101E90001092B90081E18093B8000895982F84EAE8
:101EA0008093BC008091BC0087FFFCCF8091B9007B
:101EB000887F883021F0803111F081E0089590937F
:101EC000BB0084E88093BC008091BC0087FFFCCFFE
:101ED0009091B900987F983111F480E0089580E0E6
:101EE000903409F081E00895D9CF84E98093BC0053
:101EF0008091BC0084FDFCCF08958093BB0084E8F2
:101F00008093BC008091BC0087FFFCCF8091B9001A
:101F100090E0887F883209F091E0892F089584E865
:101F20008093BC008091BC0087FFFCCF8091BB00F8
:101F300008952227E0E0F1E03DB74EB72193E31783
:101F4000F407E1F7089584B18F6084B987B18F6099
:101F500087B98AB188638AB95D9A5B9A579A5C9A05
:101F60005F980895682F690D5B9865B9629568B9A7
:101F70005C985C9A672F6A0D5B9A65B9629568B93F
:101F80005C985C9A5D985D9A0895672F690D5B98DF
:101F900065B9629568B95C985C9A682F6A0D5B9A1E
:101FA00065B9629568B95C985C9A5D985D9A089588
:101FB000809154068823B9F098E09924AA2480914E
:101FC000610770915C042091110530917C07D8D095
:101FD0008091130570917E042091120730911E05A7
:101FE000CFD09A9551F708959CE0A5E5B6E03FD093
:101FF00092E04AD0A0918C04B0918D041196A093E8
:102000008C04B0938D040895E9E4F2E09924AA24A5
:102010009AD0A0918C04B0918D041196A0938C0459
:10202000B0938D04089590915A04A2EDB4E0ED911F
:10203000FD919D90970CAD90A80C0E2E0F2A09F0E3
:1020400082D09A95A1F7B4DFA2EFB4E095E00FD06B
:10205000A6E0B5E092E018D0A0918C04B0918D0478
:102060001196A0938C04B0938D045F980895ED9120
:10207000FD919D90970CAD90A80C0E2E0F2A09F0A3
:10208000C8D09A95A1F70895ED91FD919D90970C78
:10209000AD90A80C0E2E0F2A09F0B2D09A95A1F798
:1020A0000895A5E5B6E09EE1E2DF91E0EDDFA091C5
:1020B0008C04B0918D041196A0938C04B0938D0480
:1020C0000895A3E9B4E090911005DF93CF93C5EE96
:1020D000D6E0ED91FD919D90970CAD90A80C0990E4
:1020E000002009F48DD09A95A1F7CF91DF919091BE
:1020F0005306992331F0A0917C04B0917D0491E0C6
:10210000C3DF809179049927972CA82CA0E0B1E037
:10211000880F991F880F991FA80FB91F9091D0049D
:10212000992339F08D917D912D913D9129D09A95EA
:10213000C9F7A0918C04B0918D041196A0938C04E2
:10214000B0938D04089585918823E9F38B3071F065
:1021500075912591222309F4F6CF2F3F81F0359117
:102160003F932F930DD08F917F91F3CFA5908591C1
:10217000292D58D0922E85918F3F09F0E5CF0895F3
:10218000AF01E2EBFFE0532E571A08F45194422EB0
:10219000481A08F44194451440F4E5ECFFE0872721
:1021A00078278727232732272327281730F48227E9
:1021B00028278227732737277327422E481A532E42
:1021C000571A08F45194222433246624731710F408
:1021D000639401C06A94281780F05F9A0995250CD2
:1021E000311C022C020C041431041CF0760D24184E
:1021F0003108839511F0281788F75F98FA01089540
:1022000061E060937B048191882311F00BD0FBCFB8
:10221000089561E060937B048591882311F002D0DA
:10222000FBCF08952F0187FD59C0815208F456C095
:10223000482F5527440F551F440F551F440F551F56
:10224000EFEBF4E1E40FF51F68E01F9360907B046F
:10225000662021F149B14F77342F3F7D542F577EAF
:10226000142F1F7EFF93EF936590772767FC4BD069
:1022700071E066FC48D072E065FC45D073E064FC18
:1022800042D074E063FC3FD075E062FC3CD06A95BC
:1022900059F7EF91FF9168E010927B0449B14068D3
:1022A000342F3F7D542F577E142F1F7E659066205C
:1022B00091F0772767FC2BD071E066FC28D072E0A4
:1022C00065FC25D073E064FC22D074E063FC1FD071
:1022D00075E062FC1CD06A9549F71F915F98F20186
:1022E000893111F488E00DC0803811F484E009C010
:1022F0008C3011F48AE005C08B3011F486E001C007
:102300008CE0980E089503D07F917F91C2CF062E66
:10231000770F790D372E3294660F6A0D262E229490
:1023200075B938B85BB94BB965B928B81BB94BB9A1
:102330003BB94BB97395372E329475B938B85BB940
:102340004BB965B928B81BB94BB93BB94BB97A95AC
:10235000372E32946395262E229475B938B85BB91E
:102360004BB965B928B81BB94BB93BB94BB9739593
:10237000372E329475B938B85BB94BB965B928B8FE
:102380001BB94BB93BB94BB9602D0895282F3AE1E1
:10239000839F1A943AE0812D839F112420192A30BB
:1023A00010F02A5083950895F1DF8A300CF081E017
:1023B0008295822B08950E94892281E30E94EC215C
:1023C000FC016624552482E5282E87E2382E442419
:1023D0005B985D985F9A1BB1012F0F7E520C631CB6
:1023E000E41D008005B8029408B80BB91BB9F6CFFC
:1023F000622D732D842D99270895262E372E482E71
:1024000008958AE0280E311C411C089584E6280EA8
:10241000311C411C08959AE0F9DF9A95E9F787E0AD
:10242000280E311C411C089594E69F93F4DF9F9180
:102430009A95D9F7822D8951282E31084108822D8D
:102440008A50282E310841080895822D8456282E5E
:102450003108410808959AE0F8DF9A95E9F7822D4E
:102460008750282E31084108089594E69F93F3DFA2
:102470009F919A95D9F785E2280E311C411C089549
:102480005A9A80918B07882311F482E001C083E07F
:10249000809369000895E89808951F920F920FB6EF
:1024A0000F9211248F939F9380915D048823F1F004
:1024B00080918807882399F080912F0390913003B1
:1024C00001979093300380932F03892B79F48091A7
:1024D0002703909128039093300380932F03F29A5F
:1024E000109213078091100780937A049F918F9127
:1024F0000F900FBE0F901F90189514BC85E085BDFE
:102500008FE787BD0895F19A10920103109234036A
:102510008FEF80933603809303031092350310925C
:10252000020382E085BB80936E00089510926E00D6
:1025300008950F93FC018081882359F08150808396
:10254000882339F4002329F48EB3822B8EBB1182A9
:10255000138283B1862390E009F091E08281880F95
:10256000892B8283803841F48181882399F581E029
:1025700081838DE780832EC08F3789F48381882300
:1025800029F013828EB32095822305C08181882390
:1025900019F08EB3842B8EBB118210821BC088234E
:1025A000C9F485818823B1F08EB3822399F08381A9
:1025B000882331F491E091838FE0848393830AC070
:1025C000848181508483882329F48EB3842B8EBB2D
:1025D0008FE084830F9108951F920F920FB60F9290
:1025E00011240F932F933F934F935F936F937F9398
:1025F0008F939F93AF93BF93EF93FF9316BC789401
:1026000081E093E060E148E020E100916D0791DF17
:1026100084E393E060E240E220E400E08ADF80911E
:1026200036039091030389238F3F11F4F1987EDFE5
:10263000FF91EF91BF91AF919F918F917F916F919A
:102640005F914F913F912F910F910F900FBE0F907F
:102650001F90189510922A031092290310923B04A0
:1026600010923A041092850010928400EFE6F0E098
:102670008081826080830895EFE6F0E080818D7F25
:102680008083089584E08093810086E195E09093B3
:10269000890080938800DECF3FB7F8942CE3829FB7
:1026A000C001112490932A03809329033FBF08950A
:1026B00080E19EE090933B0480933A041092D1060F
:1026C00008951F920F920FB60F9211242F938F939C
:1026D0009F932BB15F981092850010928400809197
:1026E000290390912A03009729F0019790932A03D8
:1026F0008093290380913A0490913B04009751F014
:10270000019790933B0480933A04892B19F481E05C
:102710008093D10680917A04882361F08150809360
:102720007A04882339F481E08093F60680911007BB
:1027300080937A048091830481508093830488235A
:1027400021F4F79A8FE080938304809160078823B7
:1027500029F08091600781508093600780915D042B
:102760008823E9F09091760480918004891790F491
:1027700080911805863048F0809113078C3328F437
:1027800081E08093110710921805809118058F5FE2
:1027900080931805809113078F5F809313078BB187
:1027A0002078282B2BB99F918F912F910F900FBEDE
:1027B0000F901F9018951092B20082E087BB809313
:1027C00070000895E0E7F0E080818D7F80830895B8
:1027D0001092B00087E08093B10081E68093B3004F
:1027E0000895569A5E98089580918407882309F485
:1027F0004E9A08955E9A08955E980895882309F088
:10280000F9CFFACF84B18F7C84B985B1806385B963
:102810000895F999FECF92BD81BDF89A80B50895CB
:10282000F999FECF92BD81BD60BD8FB7F894FA9A39
:10283000F99A8FBF08959C0180916D07882311F448
:10284000C901EECF0895A89584B7877F84BFE0E6DD
:10285000F0E080818861808310820895F8948091EF
:1028600060008861809360008AE080936000FFCF01
:102870004FB7F89490E0BC01660F771F680F791F7F
:102880009B0128593F4FF901859194919093C50080
:102890008093C40066597F4FFB018491882321F007
:1028A0008091C000826003C08091C0008D7F8093C2
:1028B000C0004FBF08951092C00098ED9093C100E2
:1028C00096E09093C200D4DF81E0809331030895B5
:1028D0001092C0001092C1001092C20010923103F9
:1028E00008951F920F920FB60F9211248F939F930A
:1028F000EF93FF939091000380913303891721F4A4
:1029000081E0809331030BC0E92FF0E0E95FFC4FD9
:1029100080818093C6009F5F9F7190930003FF9119
:10292000EF919F918F910F900FBE0F901F90189570
:102930001F920F920FB60F9211242F933F938F93F4
:102940009F93EF93FF933BB15F98909132039F5F0A
:102950002091C60080912C03891751F491E0909347
:10296000620780918F078823A9F09093670712C0B0
:10297000E0913203F0E0E65CFC4F2083F09A2A30CD
:1029800039F480918F07882319F081E080936707DD
:102990009093320380911A05882339F080916C0757
:1029A000882319F482E08093700080912D03909128
:1029B0002E03019690932E0380932D038BB13078D4
:1029C000382B3BB9FF91EF919F918F913F912F91C0
:1029D0000F900FBE0F901F9018951F93182F809186
:1029E0003103882399F4909133039F5F9F71809105
:1029F0000003891781F46623B1F0E0917F07F0911D
:102A000080070995809131038823B9F3109231032F
:102A10001093C60008C0E0913303F0E0E95FFC4F7B
:102A20001083909333031F910895CF93DF93EC01AC
:102A300002C061E0D2DF89918823D9F7DF91CF917D
:102A40000895CF93DF93EC0103C061E0C6DF2196C8
:102A5000FE0184918823C9F7DF91CF910895F09BFF
:102A6000FECFE0912C03F0E0E65CFC4FE08180912A
:102A70002C038F5F80932C039091320380912C0361
:102A8000981709F4F0988E2F0895DC013FB7F89459
:102A90002091320390912C0380E0E92FF0E0E65C76
:102AA000FC4FE0819F5F8F5F681708F0ED93EA307D
:102AB00011F0291791F711971C92291709F4F09832
:102AC00090932C033FBF0895F09B17C03FB7F89435
:102AD0002091320390912C03E92FF0E0E65CFC4F4B
:102AE00080819F5F8A3019F02917B1F702C029173A
:102AF00009F4F09890932C033FBF0895109233038C
:102B000010920003809131038823E1F308951F920E
:102B10000F920FB60F9211242F933F934F935F9311
:102B20006F937F938F939F93AF93BF93EF93FF9395
:102B30001092B20080911A05882311F00E94512250
:102B4000FF91EF91BF91AF919F918F917F916F9185
:102B50005F914F913F912F910F900FBE0F901F905B
:102B600018951BD7E89A0895EEE2F2E0E80FF11D00
:102B7000E4918E2F0895FC018581882319F483E662
:102B8000858302C08150858385810895FC01808101
:102B90008F5F8C3308F080E080830895FC01818191
:102BA0008F5F8C3308F080E081830895FC0182817F
:102BB0008F5F883108F080E082830895FC01862FC2
:102BC00081508C3008F061E06483862F0895FC0109
:102BD00064816F5F6483F2CFFC01643608F060E0CB
:102BE0006583862F0895FC0165816F5F6583F4CF4F
:102BF0008C3310F080E008958093840408958C3322
:102C000010F080E00895809385040895883110F0D5
:102C100080E00895809386040895FC01262F643691
:102C200058F4862F6AE00E94AD39805D8193822F2F
:102C30000E94AD39905D91938E2F9F2F08950F9331
:102C40001F93CF93DF93EB016B81E7DFDC019DE204
:102C50009C93EC81E150F0E0EE0FFF1FEE0FFF1FA1
:102C6000AF014D575F4FFA01849111968C931197E4
:102C70009A012F5F3F4FF901849112968C9312971E
:102C8000FA013296E4911396EC93139714969C9361
:102C9000149782E315968C93159780E316968C9380
:102CA0001697CD0107966D81B8DFDF91CF911F9107
:102CB0000F91089564E874E0C2CFFF920F931F93C1
:102CC0008B01FB016281A9DF0F2EFAE3FF2EF02DAD
:102CD000FC01F192CF01F80161819FDFFC01F192CB
:102CE000CF01F801608199DF1F910F91FF90089546
:102CF00064E874E0E2CFFF920F931F938C01F62EED
:102D0000862F82958F7030DFF80180838F2D8F7032
:102D10002BDFF80181830E5F1F4F802F912F1F91B2
:102D20000F91FF900895282F22952F709AE0299FE8
:102D3000900111248F70820F0895DC011496EC919C
:102D40001497E150F0E0EE0FFF1FEE0FFF1FEA5760
:102D5000FF4F84918C3151F415968C9190E08370E3
:102D60009070892B11F48DE108958CE10895CF9333
:102D7000DF93EC018B8181508B83882361F48C81FC
:102D800081508C83882321F48CE08C83CE01F3DE88
:102D9000CE01D3DF8B83DF91CF9108951F93162F40
:102DA000662321F0CADF811708F410E0812F1F91FC
:102DB00008951F93CF93DF93EC01162FEFDF882345
:102DC00009F411E01B83812FDF91CF911F910895AA
:102DD000FC0163816F5F6383ECCFCF93DF93EC01E2
:102DE000F7DF813031F4CE01F2DE813011F4CE0113
:102DF000FADEDF91CF910895E1EEF6E080818F5FFA
:102E00008083883120F01082CF010297E6CF0895A9
:102E10001F93DC0115962C911597822F6CE00E9470
:102E2000AD39592F14963C911497832F90E0875019
:102E30009F4FFC01149113964C91822F90E0837068
:102E40009070892B29F4832F8150823008F44150EF
:102E5000822F6CE00E94AD39252F30E0280F311D04
:102E60002A5F3F4F852F86958695B901680F711DA2
:102E7000CB0167E070E00E94CD3990E0810F911D99
:102E800067E070E00E94CD3990E0840F911D67E00B
:102E900070E00E94CD391F910895EF92FF920F9339
:102EA0001F937C01862F90E009966CE070E00E94F1
:102EB000CD39E82F6AE00E94AD39E81AF108042FF5
:102EC00010E0015010408DE691E09C01E29EC001AF
:102ED000E39E900DF29E900D1124080F191FC7015B
:102EE0009695879596958795080F191FC70160E9F4
:102EF00071E00E94B939060F171FF0E082E391E0FC
:102F00009C01E29FC001E39F900DF29F900D112460
:102F100005966AE070E00E94CD39060F171FC701C1
:102F200064E670E00E94B939061B170B20E030E020
:102F3000602F712F822F932F1F910F91FF90EF9091
:102F40000895882399F080917604E82FF0E0E770E7
:102F5000F070E05EFD4FE491869586958695A2EB34
:102F6000B7E0A80FB11D8C91E82BEC93809176040B
:102F70008F5F8093760408950F931F93082F882303
:102F800031F010E080E0DDDF1F5F1017D8F31F91F4
:102F90000F91089581E0D5DF80E0D3CF81E0D1DFCC
:102FA00081E0CFDF81E0CDDF80E0CBCF0F931F93B7
:102FB000CF93DF9395E0899FC00111248C010451C8
:102FC000194FC0E0D0E0F801EC0FFD1FE491EE23B3
:102FD00011F0E4DF01C0DEDF2196C530D10599F79D
:102FE000DF91CF911F910F910895813831F4D6DF91
:102FF000D1DFD4DFCFDFD2DFCDCF823831F4CEDFE7
:10300000CDDFCCDFC7DFC6DFC5CF089510927604D1
:1030100010928004109218058BE1E2EBF7E0DF01DB
:103020001D928A95E9F70895EF92FF920F931F93EF
:103030008091B1078F5F8093B107863109F057C047
:103040001092B10780918407813009F050C00E942E
:103050003723882309F04BC0D9DF81E8C6DF86E03B
:103060008BDF0F2EF6E8EF2EF4E0FF2EF02DF701A8
:1030700080816AE00E94AD3999DF82E07DDFF7014F
:1030800080816AE00E94AD39892F90DF86E074DF8D
:1030900082E8ABDF86E070DFF70182918F016AE0A2
:1030A0000E94AD3983DF82E067DFF80180816AE04A
:1030B0000E94AD39892F7ADF86E05EDF82E895DFF6
:1030C00086E05ADF8EEF9FEFE80EF91EF701808150
:1030D0006AE00E94AD396ADF82E04EDFF70180814D
:1030E0006AE00E94AD39892F61DF86E045DF1F91DC
:1030F0000F91FF90EF900895CF93DF93EC0144235D
:1031000011F4FC0113C083E0683E780710F0FE0163
:1031100003C0FE0180E381936436710510F480E3FF
:1031200081936A30710510F480E38193CB01BF0174
:103130004AE050E00E94843AEC2FFD2FDF010D9011
:103140000020E9F71197AE1BBF0B9E012A0F3B1F12
:10315000822F932FDF91CF910895BF92CF92DF926C
:10316000EF92FF920F931F93DF93CF93CDB7DEB70C
:1031700069970FB6F894DEBF0FBECDBFB82E998FFA
:103180006B01C801A0E0B0E08D8B9E8BAF8BB88F38
:10319000C901A0E0B0E0898B9A8BAB8BBC8BCA01D4
:1031A000A0E0B0E08D879E87AF87B88BBC01CD01D2
:1031B00020EA35E140E050E00E948E39EE24FF2401
:1031C00087017601E60EF71E081F191F69897A89A3
:1031D0008B899C8920E83CE140E050E00E948E39D8
:1031E000E60EF71E081F191F6D897E898F89988D3D
:1031F00020E932E040E050E00E948E39A8019701BA
:10320000260F371F481F591F29873A874B875C872E
:1032100069897A898B899C8928E135E240E050E010
:103220000E948E397B018C016D857E858F85988902
:1032300026E030E040E050E00E948E39E60EF71EB6
:10324000081F191F6D897E898F89988D27EF3DE1B1
:1032500040E050E00E948E39E60EF71E081F191F4D
:1032600069857A858B859C8520E137E240E050E0D6
:103270000E94E039D801C701820F931FA41FB51F18
:103280008D839E83AF83B8876D897E898F89988D62
:103290002DE832E140E050E00E948E397B018C0144
:1032A00069897A898B899C892AE230E040E050E084
:1032B0000E948E39E60EF71E081F191F6D817E8150
:1032C0008F81988520E137E240E050E00E94E039AC
:1032D000D801C701820F931FA41FB51F89839A834A
:1032E000AB83BC83BC01CD0120E137E240E050E07C
:1032F0000E94E03969017A016D897E898F89988DF4
:1033000029E131E040E050E00E948E39C60ED71E20
:10331000E81EF91E0B2D198D84E2D8018D938D01C5
:10332000C701B60120E137E240E050E00E94E039F9
:103330009B01AC01C801B90140E0DEDE8C0169816E
:103340007A818B819C8120E137E240E050E00E944D
:10335000E0399B01AC01C801B90141E0CDDE8C012F
:103360006D817E818F81988520E137E240E050E0D9
:103370000E94E0399B01AC01C801B90141E0BCDE0B
:103380008C0169857A858B859C8520E137E240E058
:1033900050E00E94E0399B01AC01C801B90141E055
:1033A000ABDE69960FB6F894DEBF0FBECDBFCF91EE
:1033B000DF911F910F91FF90EF90DF90CF90BF9022
:1033C0000895BF92CF92DF92EF92FF920F931F93D7
:1033D000DF93CF93CDB7DEB7EC970FB6F894DEBF8F
:1033E0000FBECDBF9E8F8D8F78A36F8FDC0115969A
:1033F0008C91159790E08053984F14966C91149788
:1034000013964C914ADD7B018C0187ED97E06AE0D1
:1034100046E143DDE616F7060807190720F4EF8DAD
:10342000F8A11082F6C19701261B370BA90160E0B5
:1034300070E080E090E0A0E0B0E029A35AA36BA385
:103440007CA38DA39EA3AFA3B8A7352F462F572FDC
:10345000682F792F8A2F9B2F0F2EFBEAAF2EF02D8E
:103460000F2EF0E3BF2EF02D0F2EF6E1CF2EF02D14
:103470000F2EF5EFDF2EF02DEE24FF2400E010E0FC
:103480000E949B38F82F822F87588AABE1E0821781
:1034900008F0E0E0A32FA65EABAB21E0A31708F095
:1034A00020E0BBA9EB0F31E0EB1708F030E0232B55
:1034B000EBABE42FEB52ECAB31E0E41708F030E07B
:1034C0004CA9420F21E08CA9481708F020E0322BCC
:1034D0004CABA52FA156ADAB21E0A51708F020E01D
:1034E0004DA9430F31E0BDA94B1708F030E0232B65
:1034F0004DABE62FE55CEEAB31E0E61708F030E0CF
:103500004EA9420F21E05EA9451708F020E0322BBA
:103510004EAB672F685F6FAB21E0671708F020E0C4
:103520004FA9430F31E07FA9471708F030E0232B64
:103530004FABF8AF81E0FF1708F080E038AD320FF5
:1035400021E0A8AD3A1708F020E0822B38AF890FB0
:1035500089AFED8DFE8D92818CE3989F90011124AF
:103560008181280F311DA90160E070E080E090E0CA
:10357000A0E0B0E029A75AA76BA77CA78DA79EA7BC
:10358000AFA7B8AB352F462F572F682F792F8A2F2B
:103590009B2F0F2EFBE2AF2EF02D0F2EF2E9BF2E48
:1035A000F02D0F2EFBE2CF2EF02DDD24EE24FF2494
:1035B00000E010E00E949B38B92FAAA9A20FE1E019
:1035C0009AA9A91708F0E0E0FBA93F0F21E03F17F7
:1035D00008F020E0FE2FF30FE1E0F31708F0E0E041
:1035E0002E2B3F2F9CA9490FE1E0491708F0E0E09E
:1035F000F22FF40F21E0F41708F020E0E22B4F2F18
:10360000FDA95F0F21E05F1708F020E0FE2FF50F06
:10361000E1E0F51708F0E0E02E2B5F2F9EA9690F7F
:10362000E1E0691708F0E0E0F22FF60F21E0F6176D
:1036300008F020E0E22B6F2FFFA97F0F21E07F171A
:1036400008F020E0FE2FF70FE1E0F71708F0E0E0C8
:103650002E2B7F2F98AD890F91E0E8AD8E1708F0E3
:1036600090E0E22FE80F21E0E81708F020E0922B2D
:1036700089AD8B0F1A2F032FF42EE52ED62EC72ED1
:10368000BE2E980F99ABAD8B3E8B4F8B588F698FA9
:103690007A8FEB8F9C8F80919A0790919B0790FF78
:1036A0007AC0AD8DBE8D6C9170E080E090E027EE29
:1036B00039EB40E050E00E948E399B01AC01550F80
:1036C000220B322FA901322F2AAF2BAF2CAF512F53
:1036D000560FF1E0511708F0F0E0B02FB70FE1E01E
:1036E000B01708F0E0E0AF2FAB0FF1E0AB1708F038
:1036F000F0E0EF2BBA2F7F2D780FF1E07F1508F067
:10370000F0E0AE2FA70FE1E0A71708F0E0E0FE2BF6
:103710007A2F6E2D690F81E06E1508F080E0F60FAC
:10372000E1E0F61708F0E0E08E2B6F2F4D2D430FF0
:10373000E1E04D1508F0E0E0F82FF40F81E0F41718
:1037400008F080E0E82B4F2F3AAD3C0D81E03C15AE
:1037500008F080E0FE2FF30FE1E0F31708F0E0E05F
:103760008E2B3F2F2BAD2B0D91E02B1508F090E009
:10377000E82FE20F81E0E21708F080E0982B89A99A
:10378000FCAD8F0F890F5D8BBE8B7F8B688F498F50
:103790003A8FEB8F8C8F6D897E894F89588D298D5B
:1037A0003A8D0B8D1C8D7E010894E11CF11CC70124
:1037B000D4DCF70101900020E9F73197EE19FF09F9
:1037C0003E2F31502E2F2D5FEF8DF8A1E20FF11D0E
:1037D000118240E087015CE2EF8DF8A1E20FF11D5C
:1037E000D801A30FB11D8C91808331503F3F89F0E8
:1037F00021504F5F842F63E00E94AD39992361F718
:10380000332351F3EF8DF8A1E20FF11D50832150C6
:10381000E3CFEC960FB6F894DEBF0FBECDBFCF91CD
:10382000DF911F910F91FF90EF90DF90CF90BF90AD
:103830000895DF92EF92FF920F931F93CF93DF9340
:10384000C1E8D7E000E010E0DD240F2EFBE9EF2E09
:10385000F7E0FF2EF02DC8010E9409148F3F09F4F4
:103860008D2D88830F5F1F4FCE15DF0511F0219638
:10387000F2CFDF91CF911F910F91FF90EF90DF90EA
:103880000895EF92FF920F931F93CF93DF9301E878
:1038900017E0C0E0D0E00F2EFCE9EF2EF7E0FF2E9E
:1038A000F02DCE016FEF0E941B14F80111928F01D1
:1038B0002196EE15FF05A9F7DF91CF911F910F918A
:1038C000FF90EF9008950C94480FEF92FF920F93A2
:1038D0001F93F82EE62E1FEF82EA0E944E0F8823D8
:1038E00019F00E94750F14C08F2D0E947D0F882340
:1038F00019F00E94750F0CC08E2D0E947D0F082FAD
:10390000882319F00E94750F03C00E94750F03C031
:10391000115011F706C0802F1F910F91FF90EF906B
:10392000089581E0809366070FEFF5CF80916D07D2
:103930008823D9F4809184048C3328F40E94D41114
:10394000682F82E0C2DF809185048C3328F40E94C6
:10395000D411682F83E0B9DF80918604883128F480
:103960000E94D411682F84E0B0CF08951F938091F6
:103970008807882319F061E010E802C060E411E8CC
:103980008FE0A3DF8EE0612FA0DF81E061E19DDFAA
:103990001F9108958DE060E098CFFCDFE7CF8DE0C8
:1039A00060E893CF0F931F93082F1FEF82EA0E94C6
:1039B0004E0F882319F00E94750F16C0802F0E94A9
:1039C0007D0F882319F00E94750F0EC083EA0E94B4
:1039D000740F882319F00E94750F06C00E948F0F84
:1039E000182F0E94750F03C0115001F704C0812FDA
:1039F0001F910F91089581E0809366071FEFF7CF25
:103A000085E0D0DF8F738FD9803208F081E080931A
:103A1000870487E0C7DF8F7186D9982F81508C305B
:103A200008F091E09093880488E0BCDF7CD984366C
:103A300008F080E0E9E8F4E080833597CF01638106
:103A4000ADD9882319F481E08093870408951F93EA
:103A500080916D07882309F5E7E8F4E01081CF0134
:103A60000397612F9BD9882339F0812F0E94D411AD
:103A7000682F85E02ADF01C0C3DF809188048D3084
:103A800028F40E94D411682F87E01FDF80918904F9
:103A90000E94D411682F88E018DF1F9108950F93BA
:103AA0001F9306E814E0F80110821092850402507A
:103AB0001040F80110823ADF81E0F80184838383AB
:103AC0001582C5DF85E090E061E00E941B141F9124
:103AD0000F910895E6E8F4E08081815080838F3F64
:103AE00031F487E18083CF01029741D9B0DF1ECF47
:103AF000E6E8F4E080818F5F8083873128F01082D0
:103B0000CF0102976AD9A3DF11CF0F931F93182F0C
:103B100082E048DF082F112319F488230CF438D6EB
:103B2000802F8F7700D98C3308F080E08093840455
:103B30001F910F910895E9DF83E034DF8F77F3D889
:103B40008C3308F080E08093850484E02BDF8F7352
:103B5000EAD8883108F080E0809386040895FC015B
:103B600080918C07823021F085818850873008F061
:103B70008FEF08951092190510925E0410921807A5
:103B800010925904ECDFE82F8F3F61F180918C0790
:103B9000882399F482E0809319058BE0809359047F
:103BA000F0E0EA5FFE4FE4918E2F82958F70809354
:103BB0005E04EF70E09318070895813099F48093C4
:103BC00019058AE080935904F0E0E25FFE4FE4912A
:103BD0008E2F82958F70875E80935E04EF70E75E14
:103BE000E093180708951F93162FB9DF982F8F3F82
:103BF00011F480E00DC0113019F480918D0705C0DB
:103C000080918E0702C0915086959923E1F78170CB
:103C10001F910895CF93DF93EC01A1DF8F3F59F1FE
:103C20008C81833040F1833071F49B8180915E04FC
:103C3000981708F1981709F520E09A8180911905E5
:103C40009817E0F01AC0909159048917B0F08917BD
:103C500091F49B8180911807981778F0981759F480
:103C60008A81823040F410925B04882331F081E035
:103C700080935B0402C020E001C021E0822FDF912D
:103C8000CF910895CF93DF93EC0169DF8F3F99F0D7
:103C9000909159048C81981780F0981761F4909155
:103CA00018078B81981748F0981729F420E08A812B
:103CB000823020F002C020E001C021E0822FDF919D
:103CC000CF9108951F93162F4ADF8F3F11F480E0A4
:103CD0001BC0E82FF0E0E05EFD4F8491113041F40D
:103CE00060918D07682B60938D078CE090E007C092
:103CF00060918E07682B60938E078DE090E00E94A4
:103D00001B140E94132E81E01F9108958FED96E001
:103D100031DF8FED96E07EDF882391F080915B04A8
:103D2000882311F481E008958FED96E062E05BDF77
:103D3000882331F48FED96E062E0C4DF80E00895DF
:103D400080E008951F93182F84E894E013DF84E83F
:103D500094E060DF813079F484E894E061E043DF4F
:103D6000882309F5112309F0C3DE84E894E061E0BB
:103D7000A9DF11E0E9CF84E894E084DF882399F09B
:103D800084E894E061E02FDF882369F084E894E020
:103D900062E029DF813039F0112329F09BDE84E8CD
:103DA00094E062E08FDF1F91089581E0CBCF80E047
:103DB000C9CF1092CE0410929004809116078C7F88
:103DC000809316070895DC01FC0180E061936F5F2A
:103DD00067FD60E28F5F8431C9F754961C92862F8D
:103DE0000895E3E9F4E0AFE1B5E08DEE27E09FEF61
:103DF000B183A08322838383825155969C935597E8
:103E000034965696813FA1F70895FC01DC0180E0CD
:103E100090E29D938F5F8431E1F7148A9F012A5EBF
:103E20003F4FC90108950F931F93CF93DF93609184
:103E300093047091940480911005282F30E0215054
:103E4000304040E014C01196CD56DB4FFD01EE0F1F
:103E5000FF1FEE0FFF1FED56FB4F8081918199836D
:103E60008883AB51B94F8C91F80180834F5FA42FA9
:103E7000B0E0ED01CC0FDD1FCC0FDD1F8D010B512C
:103E8000194FA217B307FCF2CD56DB4F7983688335
:103E9000CB01BBDF81E0F8018083DF91CF911F91DF
:103EA0000F9108950F931F932FE135E010E001E08B
:103EB00009C0C901AADF9C01E12FF0E0EB51F94FE5
:103EC00000831F5F80911005181798F372DF1F9110
:103ED0000F910895E82F80911005E81708F0E0E0B1
:103EE000F0E0EE0FFF1FEE0FFF1FED56FB4F80813E
:103EF000918108959091CE049F5F9093CE0480911C
:103F00001005981738F08FDF80911005815080934D
:103F1000CE040AC0892FDEDF78DFE091CE04F0E026
:103F2000EB51F94F81E08083109290048091160745
:103F30008C7F8093160708951F93182F8091160782
:103F400080FF01C0D7DF8091160781FF05C08D7FFC
:103F500080931607109290048091CE04BBDF2091CD
:103F60009004FC01E20FF11D1083103231F0E0915A
:103F7000CE04F0E0EB51F94F1082809190048F5FF6
:103F800080939004843128F080911607816080939B
:103F900016071F910895813F69F4862F90E0840FE2
:103FA000911D813891050CF040E0609379044093B5
:103FB000D0040895823F91F4643118F46093900422
:103FC00002C01092900480911005481710F440939D
:103FD000CE04809116078C7F809316070895CF93A7
:103FE000DF93EB01E881E7FD17C0F0E0EE0FFF1F64
:103FF000EE0FFF1FDF01A050BF4F89818C938A8194
:10400000809511968C931197EE5FFE4F8B81808384
:104010008C81809513968C93DF91CF910895833F87
:1040200061F490E0611191E0990F990F809116076A
:104030008B7F892B809316070895843F09F5809123
:1040400016078860962F91709295907F8F7E892BAE
:1040500080931607662331F4109253068EE0809306
:104060001005089581E0809353068DE0809310053C
:104070008091CE048D30E0F08CE08093CE040895E2
:10408000853F89F4809116078062962F91709295F2
:10409000990F990F907C8F7B892B8093160766234D
:1040A00009F417C306C3863F19F4662309F4FACE50
:1040B000089581E994E00C948E381F9380919104C7
:1040C00090919204892B99F51091CE04812F02DFF3
:1040D000DC01E3E4F4E08D9181938823E1F7E09142
:1040E0009004E43110F0E3E106C08091160780FFF0
:1040F00002C0E111E150F0E0ED5BFB4F8FE5808302
:10410000812F90E0880F991F880F991F8D569B4F24
:104110006FEF43E454E00E94FD3790939204809344
:104120009104E091CE04F0E0EB51F94F10821F9121
:1041300008950F931F930FE115E0C8016BED76E032
:104140000E944D3AF80101900020E9F73197E01BF9
:10415000F10BCF01800F911F66E171E00E944D3A93
:104160001092E50681E08093CE0461E308E016E159
:104170000DC0019FC0011124815E9A4F24DE682F7B
:10418000E02FF0E0EB51F94F10820F5F80911005A6
:10419000081778F31F910F9108950BDE10927904A0
:1041A0001092D004109241048091160784608778A1
:1041B0008093160780919A0784FF02C08EE001C0A9
:1041C0008DE0809310050DDE6DDEB3CF1F930E944E
:1041D0002F15182F80914104813051F4173FE8F4D6
:1041E00010932B0382E0809341041092420474C028
:1041F000823069F580914204E82FF0E0E45CFB4FE7
:1042000010838F5F80934204813051F480912B039F
:10421000833F08F461C0612F02DF109241045CC04B
:10422000823051F480912B03813F08F455C0609196
:104230003C04412FB0DEF1CF853009F04DC08091B4
:104240002B03803F51F76CE374E0C9DEE6CF1F3FDC
:1042500031F481E08093410410922B033DC0103271
:10426000B8F5183041F4809190048823A9F1815069
:104270008093900431C01D30A1F48091160781FF16
:1042800001C038DE9091160790FF07C0809190041E
:10429000843110F19E7F90931607809116078260FB
:1042A0000FC0193011F480E216C01A3061F4809109
:1042B000160780FF01C01EDE8091160781608D7F8A
:1042C0008093160709C08EE537DE812F8F5B03C010
:1042D00017FD02C0812F30DE1F91089580911607CF
:1042E00083FF09C084FF0BC081E0809353068DE0FB
:1042F0008093100515C080919A0784FF04C0109226
:1043000053068EE0F5CF81E0809353068DE08093D5
:1043100010058091CE048D3018F08CE08093CE048F
:1043200080919A0785FF10C086E095E090937D0408
:1043300080937C04809106059091070579D1809344
:1043400008051092090508C08AE095E090937D0465
:1043500080937C0410920D058091160785FF03C0A1
:1043600086FD06C0B6C180919A0786FD01C0B1C125
:1043700008950F931F9381E690E1909380078093B7
:104380007F07ACDF82E48093600702E4E4D6F59B0C
:1043900002C08FDEE4D7F39B07C0F3988ADE89D191
:1043A000ADD51F910F910895F09B0AC082DE1FEAE0
:1043B0000DDFF09B02C01150D9F700936007E6CFE4
:1043C00080916007882311F78091160782FF01C052
:1043D00074DE10924104DACF9EEF20E231E040E03B
:1043E000A0E0B1E0813329F4F9012F5F3F4F9491B0
:1043F00014C0823311F4942F10C0833349F447FD65
:1044000002C09E5F0AC0403809F491E0925005C096
:10441000843319F4942F990F990B9C934F5F51E0BB
:10442000AF3FB50711F01196DDCF80E091E0089520
:104430000C942E140F931F930E942F150E942F157A
:10444000082F0E942F15182F0E942F15682F712FEB
:10445000802F90E00E94FD111F910F910895FF920F
:104460000F931F930E94F811F62E072F182F80E547
:1044700093EC0197F1F786E40E94D82B80E00E942C
:10448000D82B812F0E94D82B802F0E94D82B8F2DC4
:104490000E94D82B8AE00E94D82B1F910F91FF9089
:1044A00008950E94E21381E080936C0778941D992F
:1044B00002C00E942E140E942F158D3219F40E9402
:1044C00001121EC0843619F40E940B1219C08434E4
:1044D00019F40E94141214C08B3219F40E941F1296
:1044E0000FC0853719F40E942B120AC0853519F4C4
:1044F0000E94351205C0833711F49CDF01C06CDFC8
:10450000AEDF809131038823E1F3F89410926C07B9
:1045100008950E94D12BF8940E944B120E9496128B
:104520000E943C130E94E21384E00E94381481E050
:1045300080931A057894089581E0089581E00895A4
:104540008FEF80930303809336038093650788E29F
:10455000809319078FE48093D10488E080935A04F4
:104560008EE197E09093D3048093D20410921205C9
:1045700081E0809364078EE38093100780937A0430
:104580008FE08093830484E18093B10708951092B3
:10459000D80480918A07843019F420E030E01FC0ED
:1045A000833031F483E58093D8042BE934E117C0DC
:1045B00080918907853011F0833069F420910E05D0
:1045C00030910F05809186048C3048F020917D0752
:1045D00030917E0704C020910E0530910F05309375
:1045E000D7042093D604089580918907863010F06F
:1045F0001092890780918907089580918A078630F3
:1046000010F010928A0780918A0708958A3311F476
:1046100088E00895803811F484E008958D3211F413
:104620008AE008958C3211F08CE0089586E00895B8
:104630000F931F93CF93DF938C01C0E0D0E003C0B2
:10464000E5DFC80FD11DF80181918F018823C1F7E3
:10465000CF3FD10509F030F48FEF90E08C1B91092A
:1046600095958795DF91CF911F910F910895809136
:104670001205811181E0089510927A0408958091C5
:10468000100780937A04089580916E07882381F43F
:104690008091CF048F5F87708093CF04E82FF0E084
:1046A000EE0FFF1FED58FC4F85919491782E892EC7
:1046B000089580918707853059F010926E0790E039
:1046C00005966AE070E00E94CD3980937F04DCCFCC
:1046D000089581E080936E077724882410927F04E8
:1046E000089580918707853009F4F3CFE2CF809158
:1046F0002703909128039093300380932F0308950C
:1047000020918807222349F02F3739F0822F90E03B
:1047100027FD9F6F8050904F02C080E090E1909302
:1047200028038093270308958EE097E00C948E3839
:1047300085E596E069E274E048E350E00C94393A8C
:10474000F8948093880712D9DBDFD1DF98DF789463
:104750000895682F8EEF94E04AE252E00C94FD3702
:104760008091120581FD0CC080910E0790910F077A
:10477000892B31F48FEFEDDF90930F0780930E07B5
:104780000895682F8AEF94E048E252E00C94FD37D8
:10479000809165078F3F79F481E080936507809170
:1047A0001B0590911C05892B31F480EFEADF909373
:1047B0001C0580931B0508951F93182F8093950760
:1047C0000E947E15812F0E9438141F9108951F9317
:1047D0008091F306282F30E040E050E080916D0793
:1047E000882311F041E050E0242B352B232B11F5C9
:1047F00080919207882341F480E280939C07109275
:104800009D0781E08093920781E190E0609192079B
:104810000E941B1410E00AC0E12FF0E0CF014E9679
:10482000E456F84F60810E941B141F5F809192072D
:10483000181790F31F9108951F93682F192F8093D5
:104840009A0790939B0789E190E00E941B148AE1EC
:1048500090E0612F0E941B1481E01F910895682F42
:104860008093870786E090E00E941B143ADF81E086
:104870000895682F8093850784E090E00E941B14C0
:1048800081E00895682F8093820781E090E00E9484
:104890001B1481E00895FF920F931F93809192075C
:1048A0008150843110F4FF2418C08BE0809392076C
:1048B0008CE997E06BED76E00E944D3A81E08093C1
:1048C000F30613C00F2D10E0C8014E960E94091484
:1048D0000456184FF8018083F394E0919207FE1676
:1048E00088F3F0E0E456F84F10821F910F91FF908B
:1048F0000895FF920F931F93F82E809191078130B6
:1049000029F4109207051092060533C0882339F464
:104910008CE997E0909307058093060521C08330CA
:1049200091F484E894E00E940817E82FF0E0EE0F7D
:10493000FF1FE451FF4F6591749108EF16E0C80125
:104940000E944D3A09C0843059F408EF16E084E81B
:1049500094E0B8010E94E119109307050093060541
:10496000809106059091070563DE80930805F0921B
:1049700009051F910F91FF90089584EA8093DC044C
:1049800082EC8093E0048EE58093E4048CE78093CE
:10499000E80487E18093EC0485E38093F00485EAE2
:1049A000A8DF8AE498E09093D3048093D204EFDDEB
:1049B00080919A0790919B079695879596958795F4
:1049C0008095817080935406089588EB8093DC0471
:1049D0008FEC8093E0048EE68093E40485E8809376
:1049E000E80480E28093EC0487E38093F00489E19B
:1049F00080DF8EE392E09093D3048093D204C7DDEE
:104A0000109254060895EAEDF4E0118210821282A9
:104A1000349684E0E23FF807C1F781E96ADF8EE16E
:104A200097E09093D3048093D204B1DD10925406A2
:104A30000895682F80938B078AE090E00E941B14F2
:104A40000E942E1481E00895682F80938C078BE0DC
:104A500090E00E941B14A9C91F93182F809384070C
:104A6000882311F00E94FC130E94061884E18093B1
:104A7000B10783E090E0612F0E941B1481E01F9139
:104A800008959C0180918907823019F4C9010C9422
:104A90007B16C9010C940D168091890781508230D4
:104AA00000F5809113078695982F969596956091BD
:104AB0001307680F690F96959695690F643608F08D
:104AC00064568091120580FF03C083E6861B682F21
:104AD0008091F4069091F506009719F0D2DFFC0161
:104AE000108208950F931F93CF93DF93109189073E
:104AF000153019F4CFE6D7E05DC0133031F48FE6FE
:104B000097E00E945A16EC0155C01430D9F48FE694
:104B100097E060919907B5DF1AE3FC011193CF018B
:104B200060919807AEDFFC011193CF016091970768
:104B3000A8DFFC0180E8808381E481838CE48283A8
:104B4000EF0137C060918604112329F4E62FF0E0CD
:104B5000E55AFC4F64918FE697E093DF0AE3FC018E
:104B60000193CF01609185048CDFFC010193CF019B
:104B70006091840486DFEC01112369F480E8888366
:104B8000809186048C3010F080E501C081E4898337
:104B90008DE48A830EC080919407882359F01150C8
:104BA000123040F4FE010193F093F506E093F40611
:104BB00073DF239618828FE697E090930B0580931E
:104BC0000A0536DD80930C05DF91CF911F910F917F
:104BD0000895682F8093940783E190E00E941B144E
:104BE00081DF81E0089580938907FEDC682F88E0EB
:104BF00090E00E941B14CBDC75CF8093CB0472DF56
:104C00008091CB04882361F1A2EDB6E0EFE6F7E0F6
:104C10008DE001900D928150E1F78091CB048230BC
:104C200019F4E5EDF6E019C0833019F4E8EDF6E08B
:104C300014C0853041F480E28093D9068093DA066F
:104C4000EBEDF6E00AC0843019F0E2EDF6E005C0C5
:104C500080E28093D506E6EDF6E080E280838183F2
:104C60000895DF92EF92FF920F931F93CF93DF93FC
:104C7000082F862F0E94D411D82EC02FD0E0829505
:104C80008F70E82FF0E0EE0FFF1F07E814E1E00F50
:104C9000F11F25913491B2EDEB2EB4E0FB2EFE0115
:104CA000EE0FFF1FEE0FFF1FEE0DFF1D2083318360
:104CB000CF01B9010E943A34ED2DF0E0EF70F070B1
:104CC000EE0FFF1FE00FF11F25913491FE01319689
:104CD000EE0FFF1FEE0FFF1FEE0DFF1D2083318330
:104CE000CF01B9010E943A34DF91CF911F910F910A
:104CF000FF90EF90DF900895CF92DF92EF92FF92B6
:104D00000F931F93CF93DF93E82E862F8A016901BB
:104D10000E94D411F82ECE2DD0E082958F70E82F0E
:104D2000F0E0EE0FFF1FE00FF11F2591349102ED2F
:104D300014E0FE01EE0FFF1FEE0FFF1FE00FF11F4B
:104D400020833183CF01B9010E943A34EF2DF0E086
:104D5000EF70F070EE0FFF1FEC0DFD1D25913491EB
:104D6000FE013196EE0FFF1FEE0FFF1FE00FF11F48
:104D700020833183CF01B9010E943A34DF91CF9172
:104D80001F910F91FF90EF90DF90CF900895809149
:104D90008A07833089F480919A0783FF09C0E091E4
:104DA0008604F0E0E55AFC4FE49186E06E2F03C0E4
:104DB00086E06091860455CF843041F486E06091AE
:104DC000860447E752E027E433E096CF80918604DB
:104DD0006CE00E94AD3985E0989F9001112480918C
:104DE00085040E94AD39280F311DB901E3E0660F3B
:104DF000771FEA95E1F7620F731F66577E4E709337
:104E0000EB046093EA048AEE94E00C943A348091C7
:104E10008A07833021F484E06091850422CF8430B6
:104E200039F46091850449EB52E027E433E064CF24
:104E30006091850489E0689FB00111246259704F28
:104E40007093E3046093E20482EE94E00C943A34AD
:104E500080918A07833009F02CC082E0609184043D
:104E600000DFE091840489E0E89FF0011124E65B13
:104E7000F74F8491809361073196849180935C040D
:104E800031968491809311053196849180937C07AB
:104E900031968491809313053196849180937E049A
:104EA00031968491809312073196E491E0931E0528
:104EB0000895843041F482E06091840449EB52E02B
:104EC00027E433E019CF6091840485E0689FB00146
:104ED00011246E5B714F7093DB046093DA048AEDEA
:104EE00094E00C943A34B4DF92DF51CF1092630710
:104EF0004EDBF9DFF7DD80910905FBCC1F937DDBED
:104F0000182F843091F489E78093F80491E090930E
:104F1000F9048BE68093FC049093FD0487E880936A
:104F200000059093010551DD44C0833091F489E779
:104F30008093F8049EEB9093F9048BE68093FC0435
:104F40009093FD0487E8809300059093010515DD9B
:104F500030C0882319F486E69AE012C0813049F403
:104F600086E69AE090930F0580930E0584E59BE01A
:104F70000BC0823019F488EB9CE002C08EED9DE0FE
:104F800090930F0580930E0590937E0780937D0785
:104F900089E78093F80494EB9093F9048BE680936F
:104FA000FC049093FD0487E880930005909301052D
:104FB0002ADD9CDF812F1F910895682F8093910730
:104FC000843021F480919A0781FF04C080E190E051
:104FD0000E941B1493CF80938A0790DF682F89E08B
:104FE00090E00E941B14D3DA7ECF41DB882329F4A2
:104FF0000E949B1D0E94001D79CF08951F93182FBA
:1050000080911205812781FF09C011FD02C08EE346
:1050100001C082E080937A04809310070E940618F2
:1050200084E18093B10710931205DFDF1F9108958B
:105030008091120581FF05C08EE380937A048093EE
:10504000100710921205D1CF0E94F4130E94141879
:10505000809184048150809384048F3F59F0809123
:105060006307813009F442CFF3DE8091190784FD94
:105070001DC038CD2BE32093840491E090936A0700
:10508000809185048150809385048F3F71F4209333
:10509000850490936B0780918604815080938604E9
:1050A0008F3F19F487E18093860420CF08950E94F2
:1050B000F4130E941418809184048F5F80938404F9
:1050C0008C3380F4809163078823C1F580919A071F
:1050D00090919B0790FD32C0BBDE8091190784FD43
:1050E00039C000CD91E090936A07109284048091BA
:1050F00085048F5F809385048C33E0F090936B0779
:1051000010928504809186048F5F80938604883195
:1051100088F0109286048091190784FD04C084E809
:1051200094E00E94ED168091120581FF07C00E9455
:10513000D51E04C08091120581FF01C0D7CE0E9408
:10514000961C8091190784FD04C00E94001D0E94D6
:10515000D51ECCCE089580919407882329F08091A4
:105160008C04877009F498DCE0917F07F091800748
:105170000995F19906C083B18073803311F00E94C4
:105180008312F69B03C0F6980E942E14809111079B
:105190008823E1F020918004822F90E08770907046
:1051A000805E9D4FFC019491269526952695E22FD1
:1051B000F0E0EE54F84F808189230E94FE13809125
:1051C00080048F5F8093800410921107F29B6AC065
:1051D0008091140590911505A0911605B0911705C1
:1051E0000196A11DB11D8093140590931505A09300
:1051F0001605B09317058091120580FF02C024DFC9
:1052000001C055DF80916D0780FF09C081FD01C09D
:105210008BDA80916D0782FF03C036DA01C084DA31
:1052200080917504882389F590918604809199076F
:10523000981759F59091850480919807981729F54A
:1052400090918404809197079817F9F480918507CD
:105250008823D9F480916D078823B9F480918A045A
:1052600090918B04892B89F480911907883368F415
:1052700082ED94E060EF40E050E00E94FD379093B3
:105280008B0480938A040E94581380918C0490911F
:105290008D04909378048093770410928D0410927B
:1052A0008C04F2988091F606882361F0109213071F
:1052B00057DA8091120580FF02C0C6DE01C0F7DE1A
:1052C0001092F606F79B03C00E945938F798809118
:1052D000290390912A03892B19F481E080936407B4
:1052E00080916A078823F9F080917F048150809330
:1052F0007F04882359F4C8D98091870790E00596E8
:105300006AE070E00E94CD3980937F04809182072B
:10531000882309F0B9D410926A0780916B0788231B
:1053200011F010926B078091D106882361F0809173
:105330008A0490918B04892B31F010928B04109287
:105340008A041092D10680916207882339F08091F7
:105350008407823009F44E9A109262070895EF9202
:10536000FF920F931F93DF93CF93CDB7DEB7649770
:105370000FB6F894DEBF0FBECDBFF59880918A04BA
:1053800090918B04892B29F08AE894E00E948E3852
:105390006BC0E0907F07F0908007CAD980917704B6
:1053A000909178048E010F5F1F4FB8014AE050E0E2
:1053B0000E94843AF80101900020E9F73197E01B40
:1053C000F0E0D801AE0FBF1F88E48C93DE01AE0F72
:1053D000BF1F8AE712968C931297FD0113821093D8
:1053E00086060093850660911405709115058091DD
:1053F0001605909117058E01075F1F4FA8012AE03F
:1054000030E00E94613AF80101900020E9F73197FD
:10541000E01BF0E0D801AE0FBF1F83E58C93EC0FCB
:10542000FD1F128610938A060093890684EF9FE081
:105430009093800780937F0784E00E944C138BDE5B
:105440000E94D7368091290390912A03892B21F05D
:10545000F39902C0F59BF3CFF59880E00E944C13BE
:10546000F0928007E0927F0764960FB6F894DEBF53
:105470000FBECDBFCF91DF911F910F91FF90EF90A5
:10548000089584E090E19093800780937F0763DE26
:10549000F59B01C064DFF39B03C0F39880E008959F
:1054A00080918F07882319F00E94EE37F0CFF09B90
:1054B000EECF74D4882359F381E0089583E190E11D
:1054C0009093800780937F0789E480930D0543DEE6
:1054D000F59B01C044DFF39B03C0F39880E008957F
:1054E000F49B03C0F4980E94063580918F078823AF
:1054F00019F00E94EE37EBCFF09BE9CF4FD4882311
:1055000031F381E008951F93CF93DF930E9423141A
:1055100081E0809364001EBA8824772411D80E9409
:10552000631C0E947D120E9442130E94E8130E9495
:10553000A30F0E94F1130E94FC130E9402140E9408
:1055400039380E94191C50D858D80E944012D8D817
:10555000CED8C7D8A0D980919507893038F010925D
:10556000950784E190E060E00E941B14809195070C
:105570000E945B1480919607843030F085E190E0C2
:1055800060E00E941B1480E0809375040E94CD208F
:105590000E940618CDD884EF9FE0909380078093F7
:1055A0007F070E94CA1C80916607882331F480918E
:1055B0008607882311F40E944F1D81E00E949B1DE5
:1055C0000E94001D80916607882371F41091840465
:1055D000C2DD81E00E94851D809184041817C1F30B
:1055E00081508093840463DD0E94B11581E0809333
:1055F0005D0478940E94D51E81DCCDD381E0C1E5A5
:10560000D0E103C081E001C080E0D0938007C09367
:105610007F070E94BE356ADC80917504882311F4EF
:105620004DDF03C0813021F42CDF882359F7ECCF04
:10563000823019F40E94B921E7CF833019F40E9417
:10564000DB11E2CF843011F4A3D4DECF8530E1F654
:105650000E942E14D9CF90E0880F991FFC01EA59BF
:10566000FB4F2591349182599B4FFC01A591B49138
:105670008C9191E08927F9010995089590E0880FB0
:10568000991F86569B4FFC0125913491F90109958C
:105690000895FC0180E28193CF010895982F8156EF
:1056A0008A3108F49052892F0895CF93DF93EC014B
:1056B0008881982F90539A3040F0603149F4EEDFA2
:1056C000982F8154863020F49753988381E001C04D
:1056D00080E0DF91CF91089580E295E00E9421154E
:1056E00081E0089583E395E00C942115FBDF8BEDB9
:1056F00096E00E9421158EEA94E00E94211587EE23
:1057000096E00C942115F2DF83E595E00E942115C7
:1057100081E008950F931F93182F092F63E375E01D
:105720000E944D3AA12FB02FFD0101900020E9F712
:105730003197EA1BFB0BE80FF91FCF011F910F9167
:1057400008950E94411C0E942E1481E008958091CA
:105750008207882331F080E00E949B1D0E94001D7B
:10576000C5DBC4DF81E008951F93CF93DF93EC0185
:1057700080918404182F125E1C3348F01C5307C01C
:10578000EADC80918404811711F480E006C0F09B6C
:10579000F7CF0E942F15888381E0DF91CF911F9171
:1057A000089501C0D8DC809131038823D9F308958E
:1057B00061E00C94ED14CF92DF92EF92FF920F9381
:1057C0001F93DF93CF930F92CDB7DEB78AE195E0B9
:1057D0000E9421150CE917E0FF24EE246E010894C5
:1057E000C11CD11CC601C0DF882321F40E94AD3446
:1057F00080E03AC08981DCDF9F2D9F5F89818D30F9
:1058000089F08A3079F0F80181938F01803211F0AC
:10581000EE2404C0EE2041F4EE24E394943121F010
:10582000F92EE0CF2F2D01C0292F8D3049F08A307D
:1058300019F406C091508F01F80182918032D1F3A2
:10584000222349F480919107882311F481E001C05B
:1058500080E0B3DB08C0F8011082909392071092A9
:10586000F3060E94533481E00F90CF91DF911F9196
:105870000F91FF90EF90DF90CF900895DF92EF921D
:10588000FF920F931F93DF93CF930F92CDB7DEB7A5
:105890007C01D62E8E010F5F1F4FC80165DF882364
:1058A00071F0898185DF8981F9DE883541F0C80191
:1058B0006D2DFBDE8981F701808381E001C080E0EE
:1058C0000F90CF91DF911F910F91FF90EF90DF909C
:1058D00008950F931F93DF93CF9300D000D0CDB7DF
:1058E000DEB78B010E942115CE01019660E1C6DF73
:1058F000882379F1CE01029660E1C0DF882349F167
:10590000CE01039660E1BADF882319F1CE01049637
:1059100060E1B4DF8823E9F0298130E064E0220F00
:10592000331F6A95E1F78A81280F311D322F222714
:105930008B8190E044E0880F991F4A95E1F74C81F4
:10594000840F911D282B392BF8013183208381E0AE
:1059500001C080E00F900F900F900F90CF91DF91DA
:105960001F910F910895DF93CF9300D0CDB7DEB78D
:1059700086E395E0BE016F5F7F4FABDF882321F0A8
:1059800089819A810E941C240F900F90CF91DF9102
:105990000895EF92FF920F931F93DF93CF9300D060
:1059A000CDB7DEB78C017B0189ED94E00E94211513
:1059B000C8010E942115CE0101966AE05FDF8823AD
:1059C00089F0CE0102966AE059DF882359F0898177
:1059D0002AE0829FC00111242A81280FF701208329
:1059E00081E001C080E00F900F90CF91DF911F9177
:1059F0000F91FF90EF9008950F931F93DF93CF9334
:105A00000F92CDB7DEB786EF94E08E010F5F1F4F88
:105A1000B801BFDF882369F184E894E069810E94BE
:105A2000EC159981891729F55DDE8DEF94E0B801B9
:105A3000B0DF8823F1F084E894E069810E94DE15EC
:105A400099818917B1F44EDE85E095E0B801A1DFB8
:105A5000882379F084E894E069810E94D9169981BD
:105A6000891739F40E94271D0E94D51E3FDA81E074
:105A700004C038DE0E94001D80E00F90CF91DF91BE
:105A80001F910F9108950F931F93DF93CF930F9260
:105A9000CDB7DEB782EE94E08E010F5F1F4FB801E5
:105AA00078DF882339F189810E9406169981891748
:105AB00009F518DE88EE94E0B8016BDF8823D1F099
:105AC00089810E94FF1599818917A1F40BDE8FEE61
:105AD00094E0B8015EDF882369F089810E94F8159F
